:100000000C9435000C945D000C945D000C945D0024
:100010000C945D000C945D000C945D000C945D00EC
:100020000C945D000C945D000C945D000C945D00DC
:100030000C945D000C945D000C945D000C945D00CC
:100040000C9405030C945D000C9475030C944F0301
:100050000C945D000C945D000C945D000C945D00AC
:100060000C945D000C945D00750711241FBECFEF4A
:10007000D8E0DEBFCDBF11E0A0E0B1E0E2E6F5E1FF
:1000800002C005900D92A432B107D9F722E0A4E294
:10009000B1E001C01D92A632B207E1F710E0C5E35E
:1000A000D0E004C02197FE010E94A90AC433D10701
:1000B000C9F70E94A7030C94AF0A0C9400008E307D
:1000C00008F08E508770806480937C0080917A0065
:1000D000806480937A0080917A0086FDFCCF8091C5
:1000E00078009091790008953FB7F8948091850148
:1000F00090918601A0918701B091880126B5A89BB7
:1001000005C02F3F19F00196A11DB11D3FBFBA2FA9
:10011000A92F982F8827BC01CD01620F711D811D69
:10012000911D42E0660F771F881F991F4A95D1F7EE
:1001300008958F929F92AF92BF92CF92DF92EF92EB
:10014000FF924B015C010E9474006B017C010E94D4
:1001500074006C197D098E099F09683E7340810502
:100160009105A8F321E0821A9108A108B10888EE50
:10017000C80E83E0D81EE11CF11C81149104A10477
:10018000B10429F7FF90EF90DF90CF90BF90AF9030
:100190009F908F900895AF92BF92CF92DF92EF928F
:1001A000FF920F931F93CF93DF936C017B018B0121
:1001B000040F151FEB015E01AE18BF08C017D10771
:1001C00059F06991D601ED91FC910190F081E02DFB
:1001D000C6010995892B79F7C501DF91CF911F9150
:1001E0000F91FF90EF90DF90CF90BF90AF90089568
:1001F000FC01538D448D252F30E0842F90E0821B2D
:10020000930B541710F0CF96089501970895FC01B1
:10021000918D828D981761F0A28DAE0FBF2FB11D09
:100220005D968C91928D9F5F9F73928F90E0089561
:100230008FEF9FEF0895FC01918D828D981731F01B
:10024000828DE80FF11D858D90E008958FEF9FEF6F
:100250000895FC01918D228D892F90E0805C9F4F45
:10026000821B91098F739927089589E891E00E9474
:10027000290121E0892B09F420E0822F089580E0F4
:1002800090E0892B29F00E94350181110C94000027
:100290000895FC01A48DA80FB92FB11DA35ABF4F1B
:1002A0002C91848D90E001968F739927848FA68975
:1002B000B7892C93A089B1898C91837080648C93C9
:1002C000938D848D981306C00288F389E02D808178
:1002D0008F7D80830895EF92FF920F931F93CF93AA
:1002E000DF93EC0181E0888F9B8D8C8D98131AC071
:1002F000E889F989808185FF15C09FB7F894EE8958
:10030000FF896083E889F9898081837080648083B4
:100310009FBF81E090E0DF91CF911F910F91FF90FF
:10032000EF900895F62E0B8D10E00F5F1F4F0F73A7
:100330001127E02E8C8D8E110CC00FB607FCFACF62
:10034000E889F989808185FFF5CFCE010E944901B6
:10035000F1CFEB8DEC0FFD2FF11DE35AFF4FF08233
:100360009FB7F8940B8FEA89FB8980818062CFCF99
:10037000CF93DF93EC01888D8823B9F0AA89BB89DC
:10038000E889F9898C9185FD03C0808186FD0DC0C7
:100390000FB607FCF7CF8C9185FFF2CF808185FFE8
:1003A000EDCFCE010E944901E9CFDF91CF910895B1
:1003B000FC0101900020E9F73197AF01481B590B70
:1003C000BC0189E891E00C94CB008F929F92AF9290
:1003D000BF920F931F93CF93DF93CDB7DEB7A19753
:1003E0000FB6F894DEBF0FBECDBF19A2423008F49D
:1003F0004AE08E010F5D1F4F842E912CB12CA12C51
:10040000A50194010E94540AE62FB901CA01EA30FD
:10041000F4F4E05DD801EE938D01232B242B252BE2
:1004200079F790E080E0109719F0CD010E94D80193
:10043000A1960FB6F894DEBF0FBECDBFDF91CF916E
:100440001F910F91BF90AF909F908F900895E95C9E
:10045000E1CF4F925F926F927F928F929F92AF9275
:10046000BF92CF92DF92EF92FF920F931F93CF93A1
:100470006B017C01742EAC019B010E94260A88232B
:1004800099F082E191E0CF911F910F91FF90EF9051
:10049000DF90CF90BF90AF909F908F907F906F90A4
:1004A0005F904F900C94D80146015701E894B7F83B
:1004B0002FEF3FEF4FE75FE7C501B4010E94260A27
:1004C00081110DC02FEF3FEF4FE75FE7C501B4018A
:1004D0000E940F0818161CF486E191E0D4CF2FEF8C
:1004E0003FEF4FE75FE4C701B6010E946E0918169F
:1004F0001CF48AE191E0C7CF2FEF3FEF4FE75FECAD
:10050000C701B6010E940F0887FDF3CF20E030E05D
:10051000A901C701B6010E940F0810E000E087FFA3
:100520000AC06DE289E891E00E946B018C01F7FA44
:10053000F094F7F8F094C0E060E070E080E09FE3B2
:100540007C1641F020E030E040E251E40E941408C3
:10055000CF5FF6CFA70196010E94A3072B013C01B4
:100560000E948D084B015C014AE00E94E5017C017C
:10057000E00EF11ECC23C1F1C501B4010E94BC08FC
:100580009B01AC01C301B2010E94A2074B015C01B7
:100590006EE289E891E00E946B01E80EF91EC150FD
:1005A00018F120E030E040E251E4C501B4010E94BE
:1005B00073092B013C010E948D084B01B12CA12C29
:1005C0004AE0C501B4010E94E501E80EF91EC5012B
:1005D000B4010E94BC089B01AC01C301B2010E949E
:1005E000A2074B015C01DBCFC701CF911F910F9197
:1005F000FF90EF90DF90CF90BF90AF909F908F9043
:100600007F906F905F904F9008951F920F920FB65A
:100610000F9211242F933F938F939F93AF93BF9388
:100620008091810190918201A0918301B091840118
:100630003091800123E0230F2D3758F50196A11D3D
:10064000B11D209380018093810190938201A0933A
:100650008301B09384018091850190918601A091DE
:100660008701B09188010196A11DB11D809385017C
:1006700090938601A0938701B0938801BF91AF91B9
:100680009F918F913F912F910F900FBE0F901F90D0
:10069000189526E8230F0296A11DB11DD2CF1F92F7
:1006A0000F920FB60F9211242F933F934F935F93A6
:1006B0006F937F938F939F93AF93BF93EF93FF932A
:1006C00089E891E00E944901FF91EF91BF91AF91BC
:1006D0009F918F917F916F915F914F913F912F915A
:1006E0000F900FBE0F901F9018951F920F920FB68C
:1006F0000F9211242F938F939F93EF93FF93E09189
:100700009901F0919A018081E0919F01F091A001FF
:1007100082FD1BC090818091A2018F5F8F73209119
:10072000A301821741F0E091A201F0E0E757FE4FEC
:10073000958F8093A201FF91EF919F918F912F91BF
:100740000F900FBE0F901F9018958081F4CFCF931C
:10075000DF93CDB7DEB72A970FB6F894DEBF0FBE92
:10076000CDBF789484B5826084BD84B5816084BD3A
:1007700085B5826085BD85B5816085BD80916E003F
:10078000816080936E001092810080918100826070
:1007900080938100809181008160809381008091AD
:1007A00080008160809380008091B100846080939C
:1007B000B1008091B00081608093B00080917A0098
:1007C000846080937A0080917A00826080937A00BE
:1007D00080917A00816080937A0080917A008068AD
:1007E00080937A001092C1008EE090E090933901DE
:1007F0008093380180E090E0ABE3B3E480933C0168
:1008000090933D01A0933E01B0933F018AE999E99D
:10081000A9EDBFE38093440190934501A093460165
:10082000B093470180E090E0A0E0B4E480935801E9
:1008300090935901A0935A01B0935B01E091990103
:10084000F0919A0182E08083E0919501F091960108
:100850001082E0919701F09198018FEC80831092C3
:10086000A101E0919D01F0919E0186E08083E091DD
:100870009B01F0919C01808180618083E0919B01CC
:10088000F0919C01808188608083E0919B01F091D0
:100890009C01808180688083E0919B01F0919C01A4
:1008A00080818F7D80832EE420937C0062E070E065
:1008B00080E090E00E94990080917A0080648093AB
:1008C0007A0080917A0086FDFCCF8091780020919B
:1008D000790030E0322F2227032E000C440B550BF9
:1008E000282B60E070E381E190E00E94760A2D837E
:1008F0003E834F8358878FB7F89480908101909002
:100900008201A0908301B09084018FBF8091380153
:100910000E945F0090937D0180937C01BC01990F40
:10092000880B990B0E94BE086B017C012DEC3CECFE
:100930004CE054E40E940F0887FF0CC041E049835B
:1009400026E636E646EE53E4C701B6010E946E097C
:1009500018160CF019822FB7F894809181019091AC
:100960008201A0918301B09184012FBF8819990958
:10097000AA09BB09813D9740A105B10518F4398149
:10098000332321F28FB7F8942091810130918201B5
:10099000409183015091840129833A834B835C8386
:1009A0008FBF1A86198610E000E02FB7F894809167
:1009B000810190918201A0918301B09184012FBFA8
:1009C00029813A814B815C81821B930BA40BB50B6F
:1009D000803D9740A105B10508F044C149855A857D
:1009E0004F5F5F4F5A874987809150019091510125
:1009F000A0915201B091530180934C0190934D010D
:100A0000A0934E01B0934F01809138010E945F0086
:100A1000909349018093480180913A010E945F00C0
:100A20007C0190934B0180934A0140905801509073
:100A3000590160905A0170905B01209048013090FC
:100A40004901B101032C000C880B990B0E94BE08D0
:100A50004B015C01A30192010E94A20720E030E05B
:100A600040E85AE30E947309A30192010E94A30780
:100A70009B01AC01209358013093590140935A01D6
:100A800050935B01C501B4010E94A2074B015C01B8
:100A90008092500190925101A0925201B092530164
:100AA00040905C0150905D0160905E0170905F012C
:100AB000B701FF0C880B990B0E94BE086B017C01EB
:100AC000A30192010E94A20720E030E040E85AE32F
:100AD0000E947309A30192010E94A3079B01AC012C
:100AE00020935C0130935D0140935E0150935F0160
:100AF000C701B6010E94A2076B017C01C09254019C
:100B0000D0925501E0925601F0925701A50194014F
:100B1000C501B4010E9473099B01AC0120936401DB
:100B200030936501409366015093670160916801BD
:100B30007091690180916A0190916B010E94A307F5
:100B4000609368017093690180936A0190936B01CF
:100B5000A7019601C701B6010E9473099B01AC0170
:100B600020936C0130936D0140936E0150936F019F
:100B70006091700170917101809172019091730187
:100B80000E94A307609370017093710180937201BA
:100B90009093730140904C0150904D0160904E0134
:100BA00070904F01A3019201C501B4010E94A207F8
:100BB00020914401309145014091460150914701F7
:100BC0000E947309A30192010E94A3079B01AC013B
:100BD000209360013093610140936201509363015F
:100BE000C701B6010E9473099B01AC0120937401F7
:100BF00030937501409376015093770160917801AD
:100C00007091790180917A0190917B010E94A307F4
:100C1000609378017093790180937A0190937B01BE
:100C200080917F0180937E0180917C0190917D0174
:100C3000821593050CF056C151E050937F018091CD
:100C40007F0129853A852130310511F480937E0199
:100C500090917E01891711F00F5F1F4F043111052C
:100C600009F0A3CE4D815E81BA01550F880B990B17
:100C70000E94BE0820E030E04AE754E40E941408D5
:100C800020E030E040E85AE30E9473094B015C0128
:100C900020913C0130913D0140913E0150913F0136
:100CA0000E94730969837A838B839C8329853A85A3
:100CB000B90190E080E00E94BC082B013C01AC012E
:100CC0009B01609168017091690180916A01909126
:100CD0006B010E9414080E94E6099B01AC01698126
:100CE0007A818B819C810E9473096B017C01C09287
:100CF0003001D0923101E0923201F0923301209123
:100D00004001309141014091420150914301C501A0
:100D1000B4010E9473096D837E838F839887A3013A
:100D200092016091700170917101809172019091B6
:100D300073010E9414080E94E6099B01AC016D81B9
:100D40007E818F8198850E9473094B015C0180929E
:100D5000340190923501A0923601B09237012D8175
:100D60003E814F81588569817A818B819C810E9467
:100D70007309209178013091790140917A01509165
:100D80007B010E947309A30192010E9414082B01A8
:100D90003C014092240150922501609226017092FC
:100DA0002701A5019401C701B6010E9473099B01A7
:100DB000AC01209328013093290140932A015093DC
:100DC0002B01C301B2010E94140860932C0170939F
:100DD0002D0180932E0190932F01109268011092A3
:100DE000690110926A0110926B01109270011092C9
:100DF0007101109272011092730110927801109299
:100E0000790110927A0110927B01C701B6010E940C
:100E100086084B017A8369836B01770FEE08FF0820
:100E20004AE0C701B601F7FE0DC06DE289E891E026
:100E30000E946B0166277727CB016C197D098E090B
:100E40009F094AE00E94E5018EE191E00E94D801ED
:100E5000C701B6010E94BE082AE939E949E95EE303
:100E60000E94730942E00E9429028EE191E00E94F3
:100E7000D8018AE0889DB001899D700D1124072E4C
:100E8000000C880B990B0E94BE0842E00E942902C8
:100E90008EE191E00E94D80189819A8164E670E038
:100EA0000E94400A072E000C880B990B0E94BE0876
:100EB00042E00E94290280E291E00E94D80164EFA2
:100EC00071E080E090E00E94990040E050E0452B06
:100ED00009F4E9CC0E943501882309F4E4CC0E948E
:100EE0000000E1CC10927F01AACEE9E8F1E0138284
:100EF000128288EE93E0A0E0B0E084839583A6831D
:100F0000B78384E091E09183808385EC90E09587BE
:100F1000848784EC90E09787868780EC90E0918BC3
:100F2000808B81EC90E0938B828B82EC90E0958BB0
:100F3000848B86EC90E0978B868B118E128E138EAD
:100F4000148E08955058BB27AA270E94BA070C9404
:100F500034090E94260938F00E942D0920F039F446
:100F60009F3F19F426F40C9423090EF4E095E7FB57
:100F70000C941D09E92F0E94450958F3BA1762071E
:100F800073078407950720F079F4A6F50C94670998
:100F90000EF4E0950B2EBA2FA02D0B01B901900194
:100FA0000C01CA01A0011124FF27591B99F0593FD8
:100FB00050F4503E68F11A16F040A22F232F342F20
:100FC0004427585FF3CF469537952795A795F0406E
:100FD0005395C9F77EF41F16BA0B620B730B840B83
:100FE000BAF09150A1F0FF0FBB1F661F771F881F3B
:100FF000C2F70EC0BA0F621F731F841F48F4879593
:1010000077956795B795F7959E3F08F0B0CF939584
:10101000880F08F09927EE0F9795879508950E94FD
:10102000F90808F481E008950E9428080C94340916
:101030000E942D0958F00E94260940F029F45F3FD4
:1010400029F00C941D0951110C9468090C94230982
:101050000E94450968F39923B1F3552391F3951B39
:10106000550BBB27AA2762177307840738F09F5FC9
:101070005F4F220F331F441FAA1FA9F335D00E2E36
:101080003AF0E0E832D091505040E695001CCAF7A3
:101090002BD0FE2F29D0660F771F881FBB1F261766
:1010A00037074807AB07B0E809F0BB0B802DBF013D
:1010B000FF2793585F4F3AF09E3F510578F00C940C
:1010C0001D090C9468095F3FE4F3983ED4F38695BC
:1010D00077956795B795F7959F5FC9F7880F911D2D
:1010E0009695879597F90895E1E0660F771F881F19
:1010F000BB1F621773078407BA0720F0621B730BCC
:10110000840BBA0BEE1F88F7E09508950E948D08B6
:101110006894B1110C94680908950E944D0988F0F3
:101120009F5798F0B92F9927B751B0F0E1F0660FAB
:10113000771F881F991F1AF0BA95C9F714C0B130EC
:1011400091F00E946709B1E008950C946709672F38
:10115000782F8827B85F39F0B93FCCF3869577951B
:101160006795B395D9F73EF4909580957095619504
:101170007F4F8F4F9F4F0895E89409C097FB3EF42F
:1011800090958095709561957F4F8F4F9F4F9923D4
:10119000A9F0F92F96E9BB279395F6958795779552
:1011A0006795B795F111F8CFFAF4BB0F11F460FF12
:1011B0001BC06F5F7F4F8F4F9F4F16C0882311F06A
:1011C00096E911C0772321F09EE8872F762F05C07E
:1011D000662371F096E8862F70E060E02AF09A9519
:1011E000660F771F881FDAF7880F9695879597F90E
:1011F0000895990F0008550FAA0BE0E8FEEF1616A8
:101200001706E807F907C0F012161306E407F507FA
:1012100098F0621B730B840B950B39F40A2661F06E
:10122000232B242B252B21F408950A2609F4A14011
:10123000A6958FEF811D811D089597F99F6780E81E
:1012400070E060E008959FEF80EC089500240A9418
:101250001616170618060906089500240A94121691
:101260001306140605060895092E0394000C11F4C4
:10127000882352F0BB0F40F4BF2B11F460FF04C071
:101280006F5F7F4F8F4F9F4F089557FD9058440FCA
:10129000551F59F05F3F71F04795880F97FB991FD5
:1012A00061F09F3F79F08795089512161306140692
:1012B000551FF2CF4695F1DF08C01616170618061F
:1012C000991FF1CF86957105610508940895E894FA
:1012D000BB2766277727CB0197F908950E94F90865
:1012E00008F48FEF08950E9486090C9434090E9437
:1012F000260938F00E942D0920F0952311F00C9456
:101300001D090C94230911240C9468090E944509B5
:1013100070F3959FC1F3950F50E0551F629FF00148
:10132000729FBB27F00DB11D639FAA27F00DB11D61
:10133000AA1F649F6627B00DA11D661F829F2227EA
:10134000B00DA11D621F739FB00DA11D621F839F71
:10135000A00D611D221F749F3327A00D611D231F47
:10136000849F600D211D822F762F6A2F11249F5795
:1013700050409AF0F1F088234AF0EE0FFF1FBB1F98
:10138000661F771F881F91505040A9F79E3F510557
:1013900080F00C941D090C9468095F3FE4F3983EBB
:1013A000D4F3869577956795B795F795E7959F5F01
:1013B000C1F7FE2B880F911D9695879597F9089593
:1013C00019F416F40C9423090C942B0A0E944D096D
:1013D000B8F39923C9F3B6F39F57550B87FF0E94C3
:1013E000390A0024A0E640EA900180585695979566
:1013F00028F4805C660F771F881F20F026173707B8
:10140000480730F4621B730B840B202931294A2BC7
:10141000A69517940794202531254A2758F7660F7B
:10142000771F881F20F026173707480730F4620B14
:10143000730B840B200D311D411DA09581F7B9015F
:10144000842F9158880F9695879508950E94F908E2
:10145000880B990B08959F3F31F0915020F48795A8
:1014600077956795B795880F911D9695879597F90C
:10147000089591505040660F771F881FD2F7089546
:1014800097FB072E16F4009407D077FD09D00E9431
:10149000950A07FC05D03EF4909581959F4F0895DD
:1014A000709561957F4F0895A1E21A2EAA1BBB1B70
:1014B000FD010DC0AA1FBB1FEE1FFF1FA217B30720
:1014C000E407F50720F0A21BB30BE40BF50B661F36
:1014D000771F881F991F1A9469F7609570958095FA
:1014E00090959B01AC01BD01CF010895052E97FB9E
:1014F0001EF400940E948D0A57FD07D00E94540AE2
:1015000007FC03D04EF40C948D0A5095409530950D
:1015100021953F4F4F4F5F4F08959095809570955F
:1015200061957F4F8F4F9F4F0895AA1BBB1B51E1C1
:1015300007C0AA1FBB1FA617B70710F0A61BB70B43
:10154000881F991F5A95A9F780959095BC01CD01E8
:101550000895EE0FFF1F0590F491E02D0994F89483
:02156000FFCFBB
:10156200000000006B01CB00F800B801290107015F
:101572001B016E616E00696E66006F766600200068
:041582000D0A00004E
:00000001FF
